S010000064635F6D6F746F722E73726563BD
S11300000C9434000C943E000C943E000C943E007E
S11300100C943E000C943E000C943E000C943E0064
S11300200C943E000C943E000C943E000C943E0054
S11300300C943E000C943E000C943E000C943E0044
S11300400C943E000C943E000C943E000C943E0034
S11300500C943E000C943E000C943E000C943E0024
S11300600C943E000C943E0011241FBECFEFD8E048
S1130070DEBFCDBF0E9455000C9485000C94000097
S11300808BB182608BB98BB18F7E8BB908958BB1A4
S113009080618BB98BB18D7F8BB908958BB18F7EC5
S11300A08BB98BB18D7F8BB908958AB182618AB97E
S11300B00E9440002FEF83E294EF21508040904053
S11300C0E1F700C000000E944E002FEF8BE792E999
S11300D0215080409040E1F700C000000E9447009A
S11300E02FEF83E294EF215080409040E1F700C06D
S11300F000000E944E002FEF8BE792E921508040D0
S11101009040E1F700C00000D3CFF894FFCF89
S9030000FC
