S016000064636D6F746F725F7377697463682E7372656325
S11300000C9434000C943E000C943E000C943E007E
S11300100C943E000C943E000C943E000C943E0064
S11300200C943E000C943E000C943E000C943E0054
S11300300C943E000C943E000C943E000C943E0044
S11300400C943E000C943E000C943E000C943E0034
S11300500C943E000C943E000C943E000C943E0024
S11300600C943E000C943E0011241FBECFEFD8E048
S1130070DEBFCDBF0E9440000C9462000C940000CF
S11300808AB186608AB987B187B9319B09C0329930
S113009007C08BB182608BB98BB18B7F8BB9F5CFE5
S11300A0329B09C0319907C08BB184608BB98BB185
S11300B08D7F8BB9EACF8BB18D7F8BB98BB18B7F61
S10B00C08BB9E3CFF894FFCFE4
S9030000FC
