:100000000C9434000C943E000C943E000C943E0082
:100010000C943E000C943E000C943E000C943E0068
:100020000C943E000C943E000C943E000C943E0058
:100030000C943E000C943E000C943E000C943E0048
:100040000C943E000C943E000C943E000C943E0038
:100050000C943E000C943E000C943E000C943E0028
:100060000C943E000C943E0011241FBECFEFD8E04C
:10007000DEBFCDBF0E9440000C945E000C940000D7
:100080009AB188E089278AB99BB188E089278BB922
:100090002FEF87EA91E6215080409040E1F700C0C1
:1000A00000008BB1877F8BB92FEF87EA91E6215053
:1000B00080409040E1F700C00000E6CFF894FFCF09
:00000001FF
