S0160000747261666669635F6F6E656469722E737265634F
S11300000C9434000C943E000C943E000C943E007E
S11300100C943E000C943E000C943E000C943E0064
S11300200C943E000C943E000C943E000C943E0054
S11300300C943E000C943E000C943E000C943E0044
S11300400C943E000C943E000C943E000C943E0034
S11300500C943E000C943E000C943E000C943E0024
S11300600C943E000C943E0011241FBECFEFD8E048
S1130070DEBFCDBF0E945E000C9483000C94000090
S113008085B1826085B985B18B7F85B985B1877F5C
S113009085B9089585B1886085B985B18B7F85B9A7
S11300A085B18D7F85B9089585B1846085B985B1A1
S11300B08D7F85B985B1877F85B9089584B18E60B8
S11300C084B90E9440002FEF83E294EF21508040D6
S11300D09040E1F700C000000E9454002FEF87EA2F
S11300E091E6215080409040E1F700C000000E945A
S11300F04A002FEF83E294EF215080409040E1F7D3
S10D010000C00000DECFF894FFCF2A
S9030000FC
