S0120000626C696E6B325F70696E2E737265632A
S11300000C9434000C943E000C943E000C943E007E
S11300100C943E000C943E000C943E000C943E0064
S11300200C943E000C943E000C943E000C943E0054
S11300300C943E000C943E000C943E000C943E0044
S11300400C943E000C943E000C943E000C943E0034
S11300500C943E000C943E000C943E000C943E0024
S11300600C943E000C943E0011241FBECFEFD8E048
S1130070DEBFCDBF0E9440000C9483000C940000AE
S113008084B1826084B984B1806184B985B18260AD
S113009085B985B18F7E85B92FEF83E294EF215026
S11300A080409040E1F700C0000085B18D7F85B9A4
S11300B085B18F7E85B92FEF8BE792E9215080407F
S11300C09040E1F700C0000085B18D7F85B985B10E
S11300D0806185B92FEF83E294EF215080409040F6
S11300E0E1F700C0000085B18D7F85B985B18F7EB1
S11300F085B92FEF8BE792E9215080409040E1F7DA
S10D010000C00000C3CFF894FFCF45
S9030000FC
